:100000000C308A00B92C0000FF00030E8301A10010
:100010000A08A0008A010408A2007708A300780853
:10002000A4007908A5007A08A60003170D08031399
:10003000A70003170F080313A80003170C080313E6
:10004000A90003170E080313AA00831383120B1EC3
:100050002B288B1852288C308400001C31280C1857
:100060005528220884002308F7002408F8002508F2
:10007000F9002608FA00270803178D000313280843
:1000800003178F000313290803178C0003132A0892
:1000900003178E00031320088A00210E8300FF0E31
:1000A0007F0E09008A110A1258288A110A12642840
:1000B0000130AF070318B00A0319B10A0319B20AD5
:1000C0008B108A110A12312843150130BF0703181B
:1000D000C00A0319C10A0319C20A0B1290018E014A
:1000E0000B308F00DC308E003208B6003108B500CE
:1000F0003008B4002F08B300B201B101B001AF0164
:10010000353090000B160C108A110A123128C420C9
:10011000541D0000283B2F3829005422201D0001C7
:10012000283B2F3829004F2720004F23460054003A
:100130004E00A9308400831300080319AC28063050
:10014000F800F701F70BA228F80BA1287B30F70085
:10015000F70BA828800B9F28080083163018B428B6
:1001600083128813B6288316831288178316881380
:10017000B018BE2883120813C028831683120817EC
:10018000831608133019C82883128812CA288316C8
:100190008312881683168812B019D2288312081287
:1001A000D4288316831208168316081200008312BF
:1001B0000615831606110230F700F70BDD28E0283C
:1001C000000083120611831606118312080083169D
:1001D000B101881700308312881B01308316B104E7
:1001E000081700308312081B0130F7000310F70DC9
:1001F00077088316B104881600308312881A0130FC
:10020000F700F70DF70DFC30F70577088316B104FA
:10021000081600308312081A0130F700F70DF70DA9
:10022000F70DF830F70577088316B1043108F800A8
:100230008312080083160611061286118312061215
:100240008316061288170817881608168312861553
:10025000831686110000831206158316061100000E
:100260008312E72078088316B000831206118316E4
:100270000611000083120615831606113F29402936
:1002800000008312E72078088316AF00831206115E
:10029000831606118813081388120812300EF7000F
:1002A000F030F70577082F04F8007808AF00AF1B8F
:1002B0002229AD08031D60298312061262298316C4
:1002C0008312061683160612000083128611831607
:1002D0008611000083120611831606112E0EAF0040
:1002E0000F30AF052F08B0008312AD2083162E0803
:1002F0000F39AF00B0008312AD20080028308316FC
:10030000A1000C30A2000130A3000630A40083122B
:100310000611831606118312061283160612831223
:100320008611831686118813081388120812061185
:10033000061286110F30A90083129920013083160E
:10034000A0002008033C031CB1290330B000831235
:10035000AD2005308316A900831299208316A00AC8
:10036000A1290230B0008312AD2005308316A90008
:10037000831299208316A0012008033C031CCE2978
:10038000A1302007840083130008A500AD012508D3
:10039000AE0083121A218316A00ABC2983128A1583
:1003A0000A12DC2C20308316AC00A801A901AA0196
:1003B000AB012308FA002208F9002108F800200800
:1003C000F7000310771CF2292408A8072508031852
:1003D000250FA90726080318260FAA0727080318C0
:1003E000270FAB07AB0CAA0CA90CA80CFA0CF90C44
:1003F000F80CF70CAC0BE12983128A150A126D2D4B
:100400008318052AB0308400831383162B082F0627
:100410008039B500AB1F172AA809A909AA09AB0999
:10042000A80A0319A90A0319AA0A0319AB0AAF1FDC
:10043000242AAC09AD09AE09AF09AC0A0319AD0A0B
:100440000319AE0A0319AF0AF701F801F901FA011D
:10045000B001B101B201B3012F082E042D042C0408
:100460000319622A2030B4000310A80DA90DAA0DAB
:10047000AB0DB00DB10DB20DB30D2F083302031D3E
:100480004B2A2E083202031D4B2A2D083102031D70
:100490004B2A2C083002031C5C2A2C08B0022D08C1
:1004A000031C2D0FB1022E08031C2E0FB2022F08C1
:1004B000031C2F0FB3020314F70DF80DF90DFA0DFD
:1004C000B40B342AB51F6F2AF709F809F909FA099C
:1004D000F70A0319F80A0319F90A0319FA0A300886
:1004E0008000840A31088000840A32088000840A6F
:1004F0003308800083120800831628080319ED2AA8
:10050000B0002C080319ED2AB00703188E2A7F309B
:10051000B002031CED2A0319ED2A922A8130B0079C
:100520000318ED2A3008F700F801F901FA0129084B
:10053000B400B4172A08B3002B08B2001830B0007A
:10054000B101321CBB2A2F08FA07031CAD2AF90A95
:10055000031DAD2AF80A0319B1172E08F907031C69
:10056000B42AF80A0319B1172D08AA00AA172A08F5
:10057000F8070318B117B10DF80CF90CFA0CB40C0C
:10058000B30CB20C0310B00BA02A0130F70703180C
:10059000ED2AF81BD22AB40DFA0DF90DF80DF70368
:1005A0000319ED2AB41FE32AFA0A031DE32AF90A04
:1005B000031DE32AF80A031DE32AF80CF90CFA0CD0
:1005C000F70A0319ED2A2908B1002D08B106B11F59
:1005D000EB2AF817F12AF813F12AF701F801F901CB
:1005E000FA01831208008030831CF92A8316A906B9
:1005F00083128316AE01AF012508AD002908AD06B0
:1006000024080319E72BAC00F70028080319F02B86
:10061000AC0203198C2B031C4A2B2908B200B21719
:100620002A08B1002B08B000AF010310B20CB10CC6
:10063000B00CAF0CAC0B142BAD1F212B2E14042CC3
:100640002E102C102E16A73084008313192C2E1276
:10065000AD1B342B2C1C3F2BB20CB10CB00CAF0CCF
:10066000F70A0319FF2B3F2BB21B422B0310AF0DD0
:10067000B00DB10DB20DF7030319FF2B342B2E175C
:10068000AC2B2E132508AD00AD1F482BB217F82B4D
:10069000B213F82B2808AC00F7002408AC02250898
:1006A000B200B2172608B1002708B000AF0103104E
:1006B000B20CB10CB00CAF0CAC0B562BAD1F632BB6
:1006C000AE14042CAE102C10AE16AB308400831385
:1006D000192CAE12AD1B762B2C1C812BB20CB10C3D
:1006E000B00CAF0CF70A0319FF2B812BB21B842B24
:1006F0000310AF0DB00DB10DB20DF7030319FF2BB1
:10070000762BAE17AC2BAE132908AD00AD1F8A2B8C
:10071000B217F82BB213F82B2908B200B2172A0827
:10072000B1002B08B000AD1F992BB2132E15042C6D
:100730002E11AF012C10A73084008313192CAD1B90
:10074000C22B2508AD002C1CAC2BB20CB10CB00C8C
:10075000AF0CF70A0319FF2BAF1FBD2BB00A031D07
:10076000BD2BB10A031DBD2BB20A031DBD2BB20C5C
:10077000B10CB00CF70A0319FF2B2E1B412BAE1B3B
:10078000832BE12B8030B206B21FCA2B042C290820
:10079000AD00D72B2508AD00B208031DD72BB1083B
:1007A000031DD72BB008031DD72BF701F82BB21B65
:1007B000E12B0310AF0DB00DB10DB20DF70BD72B20
:1007C000FF2BAD1FE52BB217F82BB213F82B28081F
:1007D000F7002908B2002A08B1002B08B000F82B56
:1007E0002408F7002508B2002608B1002708B00049
:1007F0003208F8003108F9003008FA00372CF70108
:10080000F801F901FA01372CAF01B009B109B209B9
:10081000AF09AF0A031D122CB00A031D122CB10A36
:100820000319B20A2E18202BAE18622B2E19982B02
:10083000C72B0008B007031C232CB10A031D232C6F
:10084000B20A03192C1484030008B107031C2B2CD3
:10085000B20A03192C1484030008801F803AB207DF
:1008600003182C142E1A272BAE1A692B9F2B8312D8
:1008700008007C08F50083162108F506F51F452CB5
:1008800003110310FC1B0314782C7C08F5002008CE
:10089000F6007B08F6020319532CF51F782C030889
:1008A000013A8300782C2108F6007C08F60203192F
:1008B0005F2CF51F782C0308013A8300782C22085E
:1008C000F6007D08F60203196B2CF51F782C03083F
:1008D000013A8300782C2308F6007E08F6020319FB
:1008E000772CF51F782C0308013A8300782C03102D
:1008F0008312080083162A0B7E2C812C4030AB001B
:10090000822CAB0101302902AB072B088038AC00E8
:10091000AD012C08AE0083121A21080083162808A6
:10092000073A831203199E2C0B3A0319A52C063A99
:100930000319B12C023A0319B92CC02C01308316CB
:10094000A900AA0083127A24C72C8316AD010130B6
:10095000AE0083121A2102308316A9008312992057
:10096000C72C01308316A9000230AA0083127A2412
:10097000C72C8316AD011030AE0083121A21C72C8C
:1009800001308316AD002808AE0083121A2108003A
:100990000B088316A00083128B13831603178C1782
:1009A0000C14000000000313A01FD92C83128B1716
:1009B0008316831203170C087F3903193A2D831607
:1009C0000313A000831203170D0883160313A1005D
:1009D000831203170F0883160313A2002008A80030
:1009E00083128E2483162108831203178D00831629
:1009F00003132208831203178F0003130B088316B7
:100A0000A30083128B13831603178C170C1400009A
:100A100000000313A31F0F2D83128B17831683125D
:100A200003170C0D0E0D7F3903193A2D831603138E
:100A3000A000831203170D0883160313A10083126D
:100A400003170F0883160313A2002008A8008312BF
:100A50008E2483162108831203178D008316031337
:100A60002208831203178F008D0A03198F0A0313BC
:100A7000C82C0317031308008316051483120518E6
:100A80009B2D14308316A900831299208316051418
:100A9000831205189B2D0130C306431C932DC31CE4
:100AA0006F2DF0309705F4107408831687008312B9
:100AB00087100C309D002C08F9002B08F800F90C69
:100AC000F80CF90CF80CF90C78089B00F90C790C6F
:100AD0003039F7001D08CF3977049D00922DF03092
:100AE0009D057411740883168700831207110C305A
:100AF000970083169B019C0101309D0083122C08F6
:100B0000F9002B08F800F90CF80CF90CF80CF90CAA
:100B100078089500F90C790C3039F7001708CF39AF
:100B200077049700962DF03097059D0583160514E0
:100B30008312051C962D8A150A12B12F831685146F
:100B400083128518F72D14308316A900831299207B
:100B50008316851483128518F72D0230C306C31C33
:100B6000CF2DF0309705F410740883168700831298
:100B700087100C309D002C08F9002B08F800F90CA8
:100B8000F80CF90CF80CF90C78089B00F90C790CAE
:100B90003039F7001D08CF3977049D00F22DF03071
:100BA0009D057411740883168700831207110C3099
:100BB000970083169B019C0101309D0083122C0835
:100BC000F9002B08F800F90CF80CF90CF80CF90CEA
:100BD00078089500F90C790C3039F7001708CF39EF
:100BE00077049700831685148312851CF22D8A15CD
:100BF0000A12B62F8316051583120519352E1430E7
:100C00008316A900831299208316051583120519EE
:100C1000352E0A30BB07003003180130BC07003006
:100C200003180130BD07003003180130BE07BE1B9A
:100C3000302EBE08031D2A2EBD08031D2A2E3C0897
:100C4000003C0318302EFF3A031D2A2E3B08183CA7
:100C50000318302EBE01BD010130BC001830BB00AE
:100C6000831605158312051D302E8A150A12B92F19
:100C70008316851583128519602E14308316A900FA
:100C8000831299208316851583128519602E0A30E8
:100C9000BB020030031C0130BC020030031C0130D9
:100CA000BD020030031C0130BE02BE1F5B2EBE0120
:100CB000BD01BC01BB01831685158312851D5B2E0A
:060CC0008A150A12BC2F88
:1010000037083B02F7003C08F8003808031C380F8B
:10101000F8023D08F9003908031C390FF9023E08AF
:10102000FA003A08031C3A0FFA027A088316A30062
:101030007908A2007808A1007708A000B630F70070
:10104000FA01F901F8012410A31F34282414A0097F
:10105000A109A209A309A00A031D3428A10A031D9E
:101060003428A20A0319A30A200821042204230415
:10107000031D3C28F7014B280310F81B4828A00D3E
:10108000A10DA20DA30DFA0DF90DF80DF70B3C28DB
:10109000F8132418F8177A088312C7007908C600D5
:1010A0007808C5007708C4008316AB01AA01A9011E
:1010B0008030A8007308AF007208AE007108AD0060
:1010C0007008AC008A1183127C228A157A08831674
:1010D000A3007908A2007808A1007708A0002308DF
:1010E000AB002208AA002108A9002008A80083124A
:1010F0005F088316AF0083125E088316AE0083126A
:101100005D088316AD0083125C088316AC008A115B
:1011100083127C228A157A088316A3007908A2001C
:101120007808A1007708A000831267088316AB0037
:10113000831266088316AA00831265088316A90025
:10114000831264088316A8007308AF007208AE000B
:101150007108AD007008AC008A1183127C228A15D8
:101160007A088316A7007908A6007808A5007708F2
:10117000A4002708AB002608AA002508A900240817
:10118000A8007308AF007208AE007108AD007008C7
:10119000AC008A1183127C228A15831083162308DF
:1011A000A7002208A6002108A5002008A4007A08AC
:1011B000AB007908AA007808A9007708A8008A116E
:1011C0008312F3228A157A088316A3007908A200F5
:1011D0007808A1007708A000AB01AA01A90180301E
:1011E000A800831263088316AF0083126208831677
:1011F000AE00831261088316AD0083126008831667
:10120000AC008A1183127C228A158310831623086E
:10121000A7002208A6002108A5002008A4007A083B
:10122000AB007908AA007808A9007708A8008A11FD
:101230008312F3228A157A08D3007908D20078083D
:10124000D1007708D00073088316AB007208AA009B
:101250007108A9007008A8007308AF007208AE00FA
:101260007108AD007008AC008A1183127C228A15C7
:101270007A088316A3007908A2007808A1007708ED
:10128000A0002308AB002208AA002108A90020081A
:10129000A800831267088316AF00831266088316BE
:1012A000AE00831265088316AD00831264088316AE
:1012B000AC008A1183127C228A157A088316A30057
:1012C0007908A2007808A1007708A000AB01AA0164
:1012D000A9018130A800831263088316AF0083122E
:1012E00062088316AE00831261088316AD00831274
:1012F00060088316AC008A1183127C228A1583143D
:1013000083162308A7002208A6002108A5002008AC
:10131000A4007A08AB007908AA007808A900770829
:10132000A8008A118312F3228A157A088316A30073
:101330007908A2007808A1007708A000AB01AA01F3
:10134000A9018030A8007308AF007208AE007108D0
:10135000AD007008AC008A1183127C228A157A08CD
:101360008316A7007908A6007808A5007708A400CE
:101370002708AB002608AA002508A9002408A80011
:1013800083125F088316AF0083125E088316AE00D7
:1013900083125D088316AD0083125C088316AC00CF
:1013A0008A1183127C228A15831483162308A700CE
:1013B0002208A6002108A5002008A4007A08AB0096
:1013C0007908AA007808A9007708A8008A11831272
:1013D000F3228A157A08D7007908D6007808D50054
:1013E0007708D4008316AB01AA01A9018030A800B8
:1013F000831263088316AF00831262088316AE005F
:10140000831261088316AD00831260088316AC0056
:101410008A1183127C228A157A08DB007908DA00A7
:101420007808D9007708D80053088316AB008312D8
:1014300052088316AA00831251088316A90083124A
:1014400050088316A800831247088316AF00831242
:1014500046088316AE00831245088316AD0083123A
:1014600044088316AC008A1183127C228A157A08FC
:101470008316A3007908A2007808A1007708A000CD
:10148000831257088316AB00831256088316AA00EE
:10149000831255088316A900831254088316A800E6
:1014A00083124B088316AF0083124A088316AE00DE
:1014B000831249088316AD00831248088316AC00D6
:1014C0008A1183127C228A15831083162308A700B1
:1014D0002208A6002108A5002008A4007A08AB0075
:1014E0007908AA007808A9007708A8008A11831251
:1014F000F3228A157A088316A3007908A2007808D7
:10150000A1007708A00083125B088316AB0083124A
:101510005A088316AA00831259088316A900831259
:1015200058088316A80083124F088316AF00831251
:101530004E088316AE0083124D088316AD00831249
:101540004C088316AC008A1183127C228A15831002
:1015500083162308A7002208A6002108A50020085A
:10156000A4007A08AB007908AA007808A9007708D7
:10157000A8008A118312F3228A157A088316A30021
:101580007908A2007808A1007708A000AB01AA01A1
:10159000A9018030A8007308AF007208AE0071087E
:1015A000AD007008AC008A1183127C228A157A087B
:1015B0008316A7007908A6007808A5007708A4007C
:1015C0002708AB002608AA002508A9002408A800BF
:1015D00083126F088316AF0083126E088316AE0065
:1015E00083126D088316AD0083126C088316AC005D
:1015F0008A1183127C228A15831083162308A70080
:101600002208A6002108A5002008A4007A08AB0043
:101610007908AA007808A9007708A8008A1183121F
:10162000F3228A157A088316A3007908A2007808A5
:10163000A1007708A000AB01AA01A9018030A80091
:101640007308AF007208AE007108AD007008AC00FE
:101650008A1183127C228A1583162308A700220888
:10166000A6002108A5002008A4007A08AB0079088C
:10167000AA007808A9007708A80024080319022CFA
:10168000B00028080319022CB002031C4C2B7F3039
:10169000B0070318022C522B8130B002031C022C1D
:1016A0000319022C3008F700F801F901FA01AF0123
:1016B0002508AE00AE172608AD002708AC0019308B
:1016C000B0002B08AC020318752B0130AD020318D3
:1016D000752BAE020318752BAF020318752BAF0ADA
:1016E000AE0AAD0A2B08AC07A72B2A08AD020318D7
:1016F000902B0130AE020318902BAF020318902BF1
:10170000AF0AAE0A2A08AD072B08AC07031CA72BAB
:10171000AD0A031DA72BAE0A031DA72BAF0AA72BEB
:1017200029088038AE020318A62B0130AF02031837
:10173000A62BAF0A29088038AE072A08AD07031C7C
:10174000842BAE0A031D842BAF0A842B7A14B00BB2
:10175000AA2BB52B0310AC0DAD0DAE0DAF0D0310C4
:10176000FA0DF90DF80DB10D612B311CBD2B0310D5
:10177000F80CF90CFA0CB10CC02BF7030319022C6E
:10178000B11BE92B0310AC0DAD0DAE0DAF0D2B0849
:10179000AC020318D52B0130AD020318D52BAE02D5
:1017A0000318D52BAF02031CF82B2A08AD0203182F
:1017B000E02B0130AE020318E02BAF02031CF82B24
:1017C00029088038AE020318E92B0130AF02031C50
:1017D000F82BFA0A031DF82BF90A031DF82BF80A57
:1017E000031DF82BF70A0319022CF80CF90CFA0C5C
:1017F0002508B0002908B006B01F002CF817062CE9
:10180000F813062CF701F801F901FA017A0883129E
:10181000EB007908EA007808E9007708E8006B082F
:10182000EF006A08EE006908ED006808EC004B085C
:10183000CF004A08CE004908CD004808CC00470830
:10184000CB004608CA004508C9004408C800FE018C
:10185000FD017A30FC008830FB006B088316A30082
:1018600083126A088316A200831269088316A100F6
:10187000831268088316A0008A11831239248A15FE
:10188000031C482CEB01EA017A30E9008830E800BB
:101890006B08FE006A08FD006908FC006808FB0090
:1018A0008316A301A201A101A0018A118312392488
:1018B0008A15031C5F2CEB01EA01E901E8016B08C2
:1018C000FE006A08FD006908FC006808FB007B0850
:1018D000B63CFB00FA017C08F500FC170310FC0C79
:1018E000FD0CFE0CFA0CF90CF80CF70CFB0B6E2C33
:1018F000F51F852CF709F809F909FA09F70A031900
:10190000F80A0319F90A0319FA0A7A08AE007908E5
:10191000AD007808AC007708AB00C31CA32C2C08E2
:10192000F9002B08F800F90CF80CF90CF80CF90C7C
:1019300078089B00F90C790C3039F7001D08CF3975
:1019400077049D00B62C2C08F9002B08F800F90C40
:10195000F80CF90CF80CF90C78089500F90C790CD6
:101960003039F7001708CF39770497008A150A1223
:10197000932D03081F398300FF30F40083160317EB
:101980000908C039890003131F129F120030031782
:10199000880083128701880189018313FF30831631
:1019A0000313850000308700F4008312AE01AD01FF
:1019B000AC01AB018A117E298A150030F800063887
:1019C0009200F93083169200F030831297059D053E
:1019D0002C08F9002B08F800F90CF80CF90CF80C9D
:1019E000F90C78089B00F90C790C3039F7001D08C8
:1019F000CF3977049D00353090008E010B308F0079
:101A0000DC308E00C0308B0483160C1483120B164E
:101A100083160117831243154310C314B201B10199
:101A2000B001AF01B601B501B401B301BA01B9010A
:101A3000B801B701C701C601C501C401CB01CA0184
:101A4000C901C801CF01CE01CD01CC01EB01EA01F2
:101A5000E901E801EF01EE01ED01EC01BE01BD017C
:101A6000BC01BB01CD30F300CC30F2004C30F100B2
:101A70007B30F000DF01DE015030DD008130DC0022
:101A8000CD30E300CC30E2004C30E1007B30E000B0
:101A9000E701E6012030E5008030E400C201C10129
:101AA000C001BF01431D932D431136088316A300C7
:101AB000831235088316A200831234088316A1000E
:101AC000831233088316A000A701A6010230A500E7
:101AD0005830A4008A118312D2298A157A088316F5
:101AE000A3007908A2007808A1007708A00083105D
:101AF0002308AB002208AA002108A9002008A8009A
:101B0000AF01AE010130AD004A30AC008A11831242
:101B100000228A157A08BA007908B9007808B80056
:101B20007708B7000028C21B612FC208031DA22D31
:101B3000C108031DA22DC008031DA22D3F08053CAE
:101B40000318612FC201C101C001BF01013083161A
:101B5000A9000230AA008A1183127A248A158730DC
:101B600003178D0000308F008A110313C8248A15D3
:101B700083103E088316AB0083123D088316AA002B
:101B800083123C088316A90083123B088316A80021
:101B9000AF01AE01AD016430AC008A1183120022A6
:101BA0008A157A088316A3007908A2007808A10094
:101BB0007708A0003030A007003003180130A107DB
:101BC000003003180130A207003003180130A307CA
:101BD0002008A8008A1183128E248A1583103E08DB
:101BE0008316AB0083123D088316AA0083123C08BB
:101BF0008316A90083123B088316A800AF01AE012B
:101C0000AD010A30AC008A11831200228A157A08CD
:101C10008316A3007908A2007808A1007708A00025
:101C20008314A430840083132308AB002208AA0085
:101C30002108A9002008A800AF01AE01AD010A30BB
:101C4000AC008A11831200228A1583162708A3008C
:101C50002608A2002508A1002408A0003030A00713
:101C6000003003180130A107003003180130A2072B
:101C7000003003180130A3072008A8008A1183123E
:101C80008E248A158314A030840083133E088316A3
:101C9000AB0083123D088316AA0083123C0883160A
:101CA000A90083123B088316A800AF01AE01AD0165
:101CB0000A30AC008A11831200228A158316230889
:101CC000A7002208A6002108A5002008A4003030A3
:101CD000A407003003180130A507003003180130B5
:101CE000A607003003180130A7072408A8008A11AE
:101CF00083128E248A158A3003178D0000308F00DE
:101D00008A110313C8248A1501308316A900AA007A
:101D10008A1183127A248A158D3003178D000030C2
:101D20008F008A110313C8248A1583103A0883167A
:101D3000AB00831239088316AA0083123808831671
:101D4000A900831237088316A800AF01AE01AD01C8
:101D50006430AC008A11831200228A157A08831637
:101D6000A3007908A2007808A1007708A00030300D
:101D7000A007003003180130A1070030031801301C
:101D8000A207003003180130A3072008A8008A1119
:101D900083128E248A1583103A088316AB008312AF
:101DA00039088316AA00831238088316A900831203
:101DB00037088316A800AF01AE01AD010A30AC00B0
:101DC0008A11831200228A157A088316A3007908E3
:101DD000A2007808A1007708A0008314A430840032
:101DE00083132308AB002208AA002108A9002008B9
:101DF000A800AF01AE01AD010A30AC008A11831218
:101E000000228A1583162708A3002608A2002508A9
:101E1000A1002408A0003030A007003003180130D2
:101E2000A107003003180130A20700300318013069
:101E3000A3072008A8008A1183128E248A15831410
:101E4000A030840083133A088316AB00831239084C
:101E50008316AA00831238088316A9008312370854
:101E60008316A800AF01AE01AD010A30AC008A11A3
:101E7000831200228A1583162308A7002208A600D1
:101E80002108A5002008A4003030A4070030031862
:101E90000130A507003003180130A60700300318F1
:101EA0000130A7072408A8008A1183128E248A15FE
:101EB000903003178D0000308F008A110313C8245F
:101EC0008A15431C762F0E308316A9000130AA0014
:101ED0008A1183127A248A15933003178D000030FB
:101EE0008F008A110313C8248A15882F0E30831699
:101EF000A9000130AA008A1183127A248A1595302C
:101F000003178D0000308F008A110313C8248A152F
:101F1000C31C9D2F0F308316A9000230AA008A111E
:101F200083127A248A15973003178D0000308F00B2
:101F30008A110313C8248A15AF2F0F308316A90006
:101F40000230AA008A1183127A248A159830031766
:101F50008D0000308F008A110313C8248A158A115E
:101F60003C2D8A15431CBD2F8A119E2D8A158A117E
:0E1F7000FA2D8A158A11382E8A15522D63001B
:04400E00E22FFF3F5F
:00000001FF
;PIC16F887
;CRC=8620  CREATED="12-Nov-20 13:38"
