:020000040000FA
:060000000A128A110C280F
:10000800FE00030EF0000A08F1000A168A157E2E7B
:100018000A128A110F28FA01FB018313D4308400D5
:10002800DE300A128A11F8270A128A1183179030D3
:100038008400E2300A128A11F8270A128A11830111
:100048000A168A11C32C831603175C035D04031D6B
:100058002E282F281B2FDC01DD010030831203130B
:10006800A8000030A7000030A600DC30A5008316E9
:1000780003175308F5005208F4005108F30050081C
:10008800F2000030F9000030F8000230F700583074
:10009800F6000A168A156C240A128A11750883124A
:1000A8000313AC007408AB007308AA007208A90017
:1000B8000A168A11E9200A128A11831203132808E2
:1000C80083160317CF008312031327088316031719
:1000D800CE0083120313260883160317CD0083125C
:1000E8000313250883160317CC000030D70000300F
:1000F800D6000030D5000030D4001808831603134A
:10010800CF0083160317190883160313D00083162C
:1001180003171A0883160313D100831603171B0845
:1001280083160313D200831603174C088316031390
:10013800CF02831603174D08031C4D0FA428A728C8
:1001480083160313D002831603174E08031C4E0FA1
:10015800AE28B12883160313D102831603174F085C
:10016800031C4F0FB828BB2883160313D20283162B
:10017800031783160313520883120313BD00831653
:100188000313510883120313BC008316031350088A
:1001980083120313BB00831603134F088312031340
:1001A800BA0001300A168A112A220A128A11831209
:1001B80003133D0883160317C300831203133C0877
:1001C80083160317C200831203133B088316031711
:1001D800C100831203133A0883160317C00083165D
:1001E80003135D0883120313CB00831603135C0803
:1001F80083120313CA00831603135B0883120313C5
:10020800C900831603135A0883120313C800831600
:100218000317270883120313CF0083160317260832
:1002280083120313CE0083160317250883120313C2
:10023800CD0083160317240883120313CC000A1277
:100248008A1539210A128A11831203134B08831263
:100258000317A300831203134A0883120317A2008B
:1002680083120313490883120317A100831203138F
:10027800480883120317A000403083120313CB00F1
:100288000030CA000030C9000030C80083160313CC
:100298005D0883120313CF00831603135C088312CF
:1002A8000313CE00831603135B0883120313CD00D8
:1002B800831603135A0883120313CC000A128A15F3
:1002C80039210A128A11831203134B088312031768
:1002D8009B00831203134A08831203179A008312A0
:1002E800031349088312031799008312031348085C
:1002F800831203179800831603135D0883120313F0
:10030800CB00831603135C0883120313CA008316F9
:1003180003135B0883120313C900831603135A08D7
:1003280083120313C80083120317230883120313CD
:10033800CF0083120317220883120313CE008312FF
:100348000317210883120313CD0083120317200813
:1003580083120313CC000A128A1539210A128A1152
:10036800831203134B08E5004A08E4004908E30038
:100378004808E200831603172B0883120313CB00E7
:10038800831603172A0883120313CA008316031758
:10039800290883120313C900831603172808831238
:1003A8000313C800831203171B0883120313CF001B
:1003B800831203171A0883120313CE00831203173C
:1003C800190883120313CD00831203171808831228
:1003D8000313CC000A128A1539210A128A118312D2
:1003E80003134B08E9004A08E8004908E7004808F1
:1003F800E6000A128A159A240A128A118312031334
:100408006508831203179F0083120313640883127D
:1004180003179E00831203136308831203179D00BA
:10042800831203136208831203179C00403083125F
:100438000313CB000030CA000030C9000030C800E8
:1004480083160317610883120313CF00831603175B
:10045800600883120313CE00831603175F08831204
:100468000313CD00831603175E0883120313CC0011
:100478000A128A1539210A128A11831203134B08AA
:10048800E5004A08E4004908E3004808E20083124E
:1004980003171F0883120313E900831203171E08AA
:1004A80083120313E800831203171D088312031332
:1004B800E700831203171C0883120313E6000A12CD
:1004C8008A159A240A128A1183120313650883165F
:1004D8000317B70083120313640883160317B600C3
:1004E80083120313630883160317B50083120313DB
:1004F800620883160317B400403083120313CB003D
:100508000030CA000030C9000030C8008316031349
:100518005D0883120313CF00831603135C0883124C
:100528000313CE00831603135B0883120313CD0055
:10053800831603135A0883120313CC000A128A1570
:1005480039210A128A11831203134B0883120317E5
:10055800A300831203134A0883120317A20083120D
:100568000313490883120317A100831203134808D1
:1005780083120317A000831603135D088312031365
:10058800CB00831603135C0883120313CA00831677
:1005980003135B0883120313C900831603135A0855
:1005A80083120313C800831603135D088312031311
:1005B800CF00831603135C0883120313CE0083163F
:1005C80003135B0883120313CD00831603135A0821
:1005D80083120313CC000A128A1539210A128A11D0
:1005E800831203134B08831203179B008312031310
:1005F8004A08831203179A008312031349088312C7
:1006080003179900831203134808831203179800ED
:10061800403083120313CB008030CA000030C90079
:100628000030C80083160317610883120313CF0034
:1006380083160317600883120313CE00831603176B
:100648005F0883120313CD00831603175E08831215
:100658000313CC000A128A1539210A128A1183124F
:1006680003134B0883160313AB00831203134A08C2
:1006780083160313AA00831203134908831603136E
:10068800A90083120313480883160313A8008316CE
:100698000317270883120313CB00831603172608B2
:1006A80083120313CA008316031725088312031342
:1006B800C90083160317240883120313C800831282
:1006C80003171B0883120313CF00831203171A089A
:1006D80083120313CE00831203171908831203131E
:1006E800CD0083120317180883120313CC000A12D3
:1006F8008A1539210A128A11831203134B088316AB
:100708000313AF00831203134A0883160313AE00C2
:1007180083120313490883160313AD0083120313CE
:10072800480883160313AC000A168A1500250A1216
:100738008A11831603132B08831203179300831659
:1007480003132A0883120317920083160313290838
:1007580083120317910083160313280883120317C3
:100768009000831603172B0883120313CB008316FC
:1007780003172A0883120313CA00831603172908CC
:1007880083120313C900831603172808831203135F
:10079800C80083120317230883120313CF008312A0
:1007A8000317220883120313CE00831203172108AC
:1007B80083120313CD008312031720088312031337
:1007C800CC000A128A1539210A128A1183120313DE
:1007D8004B0883160313AB00831203134A088316CE
:1007E8000313AA0083120313490883160313A900ED
:1007F80083120313480883160313A80083120317F0
:10080800130883160313AF00831203171208831605
:100818000313AE0083120317110883160313AD00E8
:1008280083120317100883160313AC000A168A15DF
:1008380000250A128A11831603132B08831603173F
:10084800B300831603132A0883160317B20083160E
:100858000313290883160317B10083160313280806
:1008680083160317B000403083120313CB00003007
:10087800CA000030C9000030C80083160317610899
:1008880083120313CF008316031760088312031320
:10089800CE00831603175F0883120313CD00831657
:1008A80003175E0883120313CC000A128A15392134
:1008B8000A128A11831203134B0883160317AF0019
:1008C800831203134A0883160317AE008312031317
:1008D800490883160317AD008312031348088316CB
:1008E8000317AC00403083120313CB000030CA005A
:1008F8000030C9000030C800831603135D08831256
:100908000313CF00831603135C0883120313CE006E
:10091800831603135B0883120313CD008316031396
:100928005A0883120313CC000A128A1539210A12B5
:100938008A11831203134B0883120317A30083122F
:1009480003134A0883120317A200831203134908EA
:1009580083120317A1008312031348088312031795
:10096800A000831603173F0883120313CB008316D6
:1009780003173E0883120313CA00831603173D08A2
:1009880083120313C900831603173C088312031349
:10099800C80083160317330883120313CF00831686
:1009A8000317320883120313CE0083160317310886
:1009B80083120313CD008316031730088312031321
:1009C800CC000A128A1539210A128A1183120313DC
:1009D8004B08E5004A08E4004908E3004808E2003B
:1009E80083160317430883120313CB0083160317D8
:1009F800420883120313CA0083160317410883129F
:100A08000313C90083160317400883120313C80091
:100A180083160317370883120313CF0083160317AF
:100A2800360883120313CE00831603173508831282
:100A38000313CD0083160317340883120313CC0065
:100A48000A128A1539210A128A11831203134B08D4
:100A5800E9004A08E8004908E7004808E6000A12E1
:100A68008A159A240A128A118312031365088312BD
:100A78000317970083120313640883120317960061
:100A88008312031363088312031795008312031359
:100A98006208831203179400831603173B08831216
:100AA8000313CB00831603173A0883120313CA00F3
:100AB80083160317390883120313C9008316031713
:100AC800380883120313C800831603172F088312EC
:100AD8000313CF00831603172E0883120313CE00C7
:100AE800831603172D0883120313CD0083160317EB
:100AF8002C0883120313CC000A128A1539210A1212
:100B08008A11831203134B08E5004A08E4004908D8
:100B1800E3004808E200831203171708831203133F
:100B2800E90083120317160883120313E8008312DF
:100B38000317150883120313E70083120317140819
:100B480083120313E6000A128A159A240A128A11DC
:100B5800831203136508831203179F00831203137C
:100B68006408831203179E00831203136308831219
:100B780003179D00831203136208831203179C0056
:100B8800403083120313CB000030CA000030C90084
:100B98000030C800831603135D0883120313CF00C7
:100BA800831603135C0883120313CE008316031302
:100BB8005B0883120313CD00831603135A088312AC
:100BC8000313CC000A128A1539210A128A118312DA
:100BD80003134B0883160313AB00831203134A084D
:100BE80083160313AA0083120313490883160313F9
:100BF800A90083120313480883160313A800831659
:100C080003171F0883120313CB00831603171E084C
:100C180083120313CA00831603171D0883120313D4
:100C2800C900831603171C0883120313C800831214
:100C38000317230883120313CF0083120317220814
:100C480083120313CE0083120317210883120313A0
:100C5800CD0083120317200883120313CC000A1255
:100C68008A1539210A128A11831203134B08E500E9
:100C78004A08E4004908E3004808E2008312031721
:100C88001F0883120313E900831203171E08831237
:100C98000313E800831203171D0883120313E700E8
:100CA800831203171C0883120313E6000A128A151D
:100CB8009A240A128A1183120313650883160313F0
:100CC800AF0083120313640883160313AE00831264
:100CD8000313630883160313AD008312031362081A
:100CE80083160313AC000A168A11E6220A128A1127
:100CF800831603132B0883160317A3008316031305
:100D08002A0883160317A2008316031329088316DB
:100D18000317A10083160313280883160317A000DE
:100D280023089F0022089E0021089D0020089C009F
:100D38003F08BB003E08BA003D08B9003C08B800AF
:100D48004308BF004208BE004108BD004008BC007F
:100D58004430F5007930F400C030F3000030F20080
:100D68002308F9002208F8002108F7002008F600F7
:100D78000A168A1186210A128A110318C42EC52E52
:100D8800CF2E443083160317A3007930A200C03059
:100D9800A1000030A000831603172308F5002208DD
:100DA800F4002108F3002008F2000030F9000030B8
:100DB800F8000030F7000030F6000A168A11862184
:100DC8000A128A110318E92EEA2EF42E003083162F
:100DD8000317A3000030A2000030A1000030A000DB
:100DE80083160317230883160313C50083160317F6
:100DF800220883160313C4008316031721088316D9
:100E08000313C30083160317200883160313C200B5
:100E18000A168A1157200A128A11831603134508E5
:100E2800D7004408D6004308D5004208D40003136D
:100E380058035904031D212F222F2C2F5508CC00AD
:100E48005408CB000A128A1577200A128A11352F06
:100E58005508CC005408CB000A128A1136270A120A
:100E68008A1108000430831603134C02003003195A
:100E78004B020318402F412FF72F4B0883120313FF
:100E8800BA00831603134C0883120313BB00BC017A
:100E9800BD0100300A168A112A220A128A11831209
:100EA80003133D0883160313AF00831203133C0892
:100EB80083160313AE00831203133B088316031330
:100EC800AD00831203133A0883160313AC004430B1
:100ED800AB007F30AA00C030A9000030A8000A1675
:100EE8008A11E6220A128A11831603132B08831229
:100EF8000313CF00831603132A0883120313CE00AB
:100F080083160313290883120313CD0083160313D2
:100F1800280883120313CC000A168A152F240A12F4
:100F28008A11831203133408BA003508BB00003055
:100F3800BB1BFF30BC00BD0001300A168A112A22F3
:100F48000A128A11831203133D08CB003C08CA0019
:100F58003B08C9003A08C8000A128A1539210A1242
:100F68008A11831203134B0883160313C5008312D7
:100F780003134A0883160313C40083120313490892
:100F880083160313C300831203134808831603133D
:100F9800C2000A168A1157200A128A1183160313EF
:100FA8004308CC004208CB00831203139D1283161A
:100FB80003134B18E02FE42F831203131D16E72F9A
:100FC800831203131D12831603134C08CE004B081B
:100FD800CD000310CE0CCD0C0310CE0CCD0C4D085B
:100FE800831203139B00080064008001840A04062E
:100FF800031900340406F92FF400831203130612B0
:1010080074080A168A1586230A128A15831203138E
:101018000615A630F300F30B0F2800008312031304
:101028000611080083120313861100300A168A1568
:1010380086230A128A158230F600DD30F500F50B9A
:101048002328F60B2328282803300A128A150020A3
:101058000A128A152130F6007630F500F50B322891
:10106800F60B3228000003300A128A1500200A12F3
:101078008A154830F6006C30F500F50B4128F60B60
:101088004128000003300A128A1500200A128A1526
:1010980002300A128A1500200A128A1502300A1232
:1010A8008A1500200A128A1508300A128A150020AB
:1010B8000A128A1500300A128A1500200A128A15A7
:1010C8000C300A128A1500200A128A1500300A12FA
:1010D8008A1500200A128A1506300A128A1500207D
:1010E8000A128A1508000430831603134C020030D4
:1010F80003194B0203188128822838294B088312C8
:101108000313BA00831603134C0883120313BB009E
:10111800BC01BD0100300A168A112A220A128A155A
:10112800831203133D0883160313AF0083120313BE
:101138003C0883160313AE00831203133B0883167F
:101148000313AD00831203133A0883160313AC008C
:101158004430AB007F30AA00C030A9000030A8009E
:101168000A168A11E6220A128A15831603132B0817
:1011780083120313CF00831603132A088312031361
:10118800CE0083160313290883120313CD00831698
:101198000313280883120313CC000A168A152F2478
:1011A8000A128A15831203133408BA003508BB00E3
:1011B8000030BB1BFF30BC00BD0001300A168A118D
:1011C8002A220A128A15831203133D08CB003C0811
:1011D800CA003B08C9003A08C8000A128A15392112
:1011E8000A128A15831203134B0883160313C500CA
:1011F800831203134A0883160313C40083120313CC
:10120800490883160313C30083120313480883167F
:101218000313C2000A168A1157200A128A15831668
:1012280003134308CC004208CB0083120313971220
:10123800831603134B182129252983120313171624
:101248002829831203131712831603134C08CE00A0
:101258004B08CD000310CE0CCD0C0310CE0CCD0CDA
:101268004D088312031395000800831203134B08DB
:101278008039D0005008D5004B08D0005007D10065
:101288005108DB00CA1F49294A294B295B145B080E
:1012980003194F2950295F295B0A031D5429552931
:1012A8005D290030CB000030CA000030C900003092
:1012B800C800CA1767290030CB000030CA000030C8
:1012C800C9000030C8004F088039D0005008D50642
:1012D8004F08D0005007D1005108D600CE1F7529FD
:1012E800762977295614560803197B297C298B29D6
:1012F800560A031D8029812989290030CF00003032
:10130800CE000030CD000030CC00CE17932900303D
:10131800CF000030CE000030CD000030CC005608A1
:101328000319972998299D295B08031D9C299D2944
:10133800A6290030CB000030CA000030C9000030B8
:10134800C800992C4808D0005008F2004E080A1628
:101358008A15CD230A128A15730883120313E10034
:101368007208E0006008D000D101D201D30153080F
:10137800DA005208D9005108D8005008D70061088F
:10138800D000D101D201D3015308DF005208DE009A
:101398005108DD005008DC004908D0005008F20070
:1013A8004D080A168A15CD230A128A157308831266
:1013B8000313E1007208E0006008D000D101D201F7
:1013C800D3015008D707510803110318013E031928
:1013D800EE29D807520803110318013E0319F5290D
:1013E800D907530803110318013E0319FC29DA072A
:1013F8006108D000D101D201D3015008DC0751089F
:1014080003110318013E03190A2ADD0752080311C4
:101418000318013E0319112ADE07530803110318A4
:10142800013E0319182ADF074A08D0005008F200C5
:101438004C080A168A15CD230A128A1573088312D6
:101448000313E1007208E0006008D000D101D20166
:10145800D3015008D707510803110318013E031997
:10146800362AD807520803110318013E03193D2AEA
:10147800D907530803110318013E0319442ADA0750
:101488006108D000D101D201D3015008DC0751080E
:1014980003110318013E0319522ADD0752080311EC
:1014A8000318013E0319592ADE07530803110318CC
:1014B800013E0319602ADF070830D0000310D70D5A
:1014C800D80DD90DDA0DD00B622A4908D000500882
:1014D800F2004C080A168A15CD230A128A157308D9
:1014E80083120313E1007208E0006008D00061086D
:1014F800D100D201D3015008D707510803110318AE
:10150800013E0319882AD807520803110318013E1F
:1015180003198F2AD907530803110318013E031929
:10152800962ADA074808D0005008F2004D080A1633
:101538008A15CD230A128A15730883120313E10052
:101548007208E0006008D0006108D100D201D30120
:101558005008D707510803110318013E0319B52A8B
:10156800D807520803110318013E0319BC2AD907EA
:10157800530803110318013E0319C32ADA07083078
:10158800D0000310D70DD80DD90DDA0DD00BC52A10
:101598004808D0005008F2004C080A168A15CD23D6
:1015A8000A128A15730883120313E1007208E00017
:1015B8006008D0006108D100D201D3015008D707D4
:1015C800510803110318013E0319EB2AD8075208E2
:1015D80003110318013E0319F22AD907530803110E
:1015E8000318013E0319F92ADA074908D000500800
:1015F800F2004E080A168A15CD230A128A157308B6
:1016080083120313E1007208E0006008D00061084B
:10161800D100D201D3015008DC0751080311031887
:10162800013E0319182BDD07520803110318013E68
:1016380003191F2BDE07530803110318013E031972
:10164800262BDF074A08D0005008F2004D080A167A
:101658008A15CD230A128A15730883120313E10031
:101668007208E0006008D0006108D100D201D301FF
:101678005008DC07510803110318013E0319452BD4
:10168800DD07520803110318013E03194C2BDE072E
:10169800530803110318013E0319532BDF074A08A7
:1016A800D0005008F2004E080A168A15CD230A12F7
:1016B8008A15730883120313E1007208E0006008BA
:1016C800D0006108D100D201D30108300310D00D39
:1016D800D10DD20DD30DFF3E031D6A2B5008DC0738
:1016E800510803110318013E03197B2BDD0752082B
:1016F80003110318013E0319822BDE075308031157
:101708000318013E0319892BDF075708D000580832
:10171800D1005908D2005A08D30018300310D30C4E
:10172800D20CD10CD00CFF3E031D922B5008DC07C5
:10173800510803110318013E0319A32BDD075208B2
:1017480003110318013E0319AA2BDE0753080311DE
:101758000318013E0319B12BDF070830D00003102E
:10176800D70DD80DD90DDA0DD00BB32B5B08560762
:10177800D000D101D10D5008823EE0005108031875
:10178800013EFF3EE100E52B0130D0000310DC0DE7
:10179800DD0DDE0DDF0DD00BCA2BDA1FD42BD52BB8
:1017A800D62B5C140130D0000310D70DD80DD90DFD
:1017B800DA0DD00BD82BFF30E0070318E10AFF3011
:1017C800E107DE1FE82BE92BC82BD601DA1FED2B2A
:1017D800EE2B0A2CFF305705D000FF305805D100FA
:1017E800FF305905D2007F305A05D3005308520400
:1017F800510450040319012C022C052CD601D60AD9
:101808000A2C5C1C082C092C0A2C022C56080319DB
:101818000E2C0F2C402C0130DC070030031801304F
:10182800DD07003003180130DE07003003180130EF
:10183800DF075F1C202C212C402C5C08D0005D08A1
:10184800D1005E08D2005F08D3000130D400530DE8
:10185800D30CD20CD10CD00CD40B2B2C5308DF009A
:101868005208DE005108DD005008DC000130E007B6
:101878000318E10A0030E1076108803AFF00803070
:101888007F02031D492CFF306002031C4C2C4D2C99
:10189800582C7F3083120313DF008030DE000030C5
:1018A800DD000030DC008D2C831203136108803AC0
:1018B800FF0080307F02031D632C01306002031893
:1018C800662C672C732C003083120313DF00003062
:1018D800DE000030DD000030DC00D5018D2C8312E5
:1018E80003136008D0005008DB00FF30DC05FF3030
:1018F800DD057F30DE050030DF055B1C842C852C80
:10190800862CDE175B08D0000310500CD10051085C
:10191800DF005508D0005008DF045F08CB005E08E0
:10192800CA005D08C9005C08C800080083120313D8
:101938006508803983160313A00020088312031357
:10194800EA00650883160313A0002007A1002108F8
:1019580083120313EC00E41FB22CB32CB42C6C14C8
:101968006C080319B82CB92CC92C6C0A031DBD2CA2
:10197800BE2CC62C0030E5000030E4000030E30047
:101988000030E200E417E501D12C0030E50000301A
:10199800E4000030E3000030E20069088039831673
:1019A8000313A000200883120313EB006B086A06D8
:1019B8000319DF2CE02CE12C6A176908831603133E
:1019C800A0002007A100210883120313EB00E81FE1
:1019D800EE2CEF2CF02C6B146B080319F42CF52C5F
:1019E800052D6B0A031DF92CFA2C022D0030E90095
:1019F8000030E8000030E7000030E600E817E901B1
:101A08000D2D0030E9000030E8000030E70000301C
:101A1800E6006C086B020318122D132D972D6A1F10
:101A2800162D172D1F2D803083160313A0002008B4
:101A380083120313EA066C0883160313A000200818
:101A480083120313ED006B0883160313A00020080C
:101A580083120313EC006D0883160313A0002008FB
:101A680083120313EB00620883160313A0002008F7
:101A780083120313ED00660883160313A0002008E1
:101A880083120313E2006D0883160313A0002008D5
:101A980083120313E600630883160313A0002008CB
:101AA80083120313ED00670883160313A0002008B0
:101AB80083120313E3006D0883160313A0002008A4
:101AC80083120313E700640883160313A000200899
:101AD80083120313ED00680883160313A00020087F
:101AE80083120313E4006D0883160313A000200873
:101AF80083120313E800650883160313A000200867
:101B080083120313ED00690883160313A00020084D
:101B180083120313E5006D0883160313A000200841
:101B280083120313E900ED016B0883160313A00069
:101B3800A1012108A300831203136C088316031361
:101B48002002A200031CA3032308803AFF00803070
:101B58007F02031DB12D1A302202031CB42DB52DAE
:101B6800062E831203136508640463046204031DCC
:101B7800BE2DC02D0130C12D003083160313A000E7
:101B8800200883120313ED000030E5000030E40064
:101B98000030E3000030E2006B0883160313A00056
:101BA800200883120313EC000E2E6D1CDC2DDD2D96
:101BB800EA2D6D0883160313A0000310200C0138CA
:101BC800A100210883120313ED00EC2D0310ED0C86
:101BD800621CEF2DF02DF12DED1701308316031344
:101BE800A00083120313650DE50CE40CE30CE20C72
:101BF80083160313A00BF52D0130A00020088312D3
:101C08000313EC07831203136B086C02031C0D2EDD
:101C18000E2ED92D6A1B112E122E692E6C08031D4B
:101C2800162E172E202E0030E5000030E40000307C
:101C3800E3000030E200FF2F6608E207670803119F
:101C48000318013E0319292EE30768080311031836
:101C5800013E0319302EE407690803110318013EF9
:101C68000319372EE507651C3A2E3B2E5D2F6D1C98
:101C78003E2E3F2E4C2E6D0883160313A000031032
:101C8800200C0138A100210883120313ED004E2E09
:101C98000310ED0C621C512E522E532EED170130FD
:101CA80083160313A00083120313650DE50CE40CDF
:101CB800E30CE20C83160313A00B572E0130A0008F
:101CC800200883120313EC075D2F6508803AFF0094
:101CD8006908803A7F02031D7B2E68086402031D91
:101CE8007B2E67086302031D7B2E660862020318B9
:101CF8007E2E7F2E0F2FFF3083160313A000FF3098
:101D0800A100FF30A200FF30A3008312031366086E
:101D180083160313A400831203136708831603139F
:101D2800A50083120313680883160313A600831201
:101D38000313690883160313A700831203136208A9
:101D480083160313A402831203136308031C630F8F
:101D5800AE2EB12E83160313A50283120313640853
:101D6800031C640FB82EBB2E83160313A60283121E
:101D780003136508031C650FC22EC52E83160313B3
:101D8800A70283120313831603132408A007250848
:101D98000318250FD02ED12EA10726080318260FC9
:101DA800D62ED72EA20727080318270AA307230829
:101DB80083120313E5008316031322088312031307
:101DC800E40083160313210883120313E300831628
:101DD8000313200883120313E200803083160313D1
:101DE800A000200883120313EA06ED09ED0A6D0826
:101DF800031DFF2E002F1D2F0130E20700300318AE
:101E08000130E307003003180130E40700300318FD
:101E18000130E5071D2F6608E2026708031C670FFB
:101E2800E3026808031C680FE4026908031C690FD1
:101E3800E5026508640463046204031D242F252F4A
:101E4800592F6D08031D292F2A2F592F0030E5001F
:101E58000030E4000030E3000030E200FF2F0130E2
:101E680083160313A000031083120313E20DE30D7E
:101E7800E40DE50D83160313A00B372F831203130C
:101E8800ED1F472F482F492F62146D1C4C2F4D2FE3
:101E9800502F0314ED0D522F0310ED0D6C0803198C
:101EA800562F572F592F0130EC02E41F5C2F5D2F5E
:101EB800332FEB01ED1F612F622F702F6D087F39D3
:101EC8000319672F682F6B2FEB01EB0A702F621C29
:101ED8006E2F6F2F702F682F6B080319742F752FB3
:101EE800C92F0130E207003003180130E307003042
:101EF80003180130E407003003180130E507651CBA
:101F0800862F872FC92F620883160313A000831218
:101F18000313630883160313A100831203136408D1
:101F280083160313A2008312031365088316031391
:101F3800A3000130A400230DA30CA20CA10CA00C3B
:101F4800A40B9F2F230883120313E50083160313A2
:101F5800220883120313E400831603132108831253
:101F68000313E30083160313200883120313E2000C
:101F78006C0A0319C02FC12FC92F01308316031310
:101F8800A000200883120313EC076C0A0319CD2F55
:101F9800CE2FD32F6C08031DD22FD32FE12F003063
:101FA800E5000030E4000030E3000030E2006C0897
:101FB800031DDF2FE02FE12FEA016C1CE42FE52F32
:101FC800E72FE417EF2F7F3083160313A0002008B4
:101FD80083120313E4056C0883160313A00003108F
:101FE800200CA100210883120313E500EA1FFD2F2E
:081FF800FE2FFF2FE517080082
:10200200831203139D111D11080083120313340858
:10201200B8003508B9003608BA003708BB000230EC
:102022000310B80DB90DBA0DBB0DFF3E031D1128EB
:1020320004300310B80DB90DBA0DBB0DFF3E031DE0
:102042001A283B08A8003A08A7003908A600380851
:10205200A5000130AC003130AB002D30AA000030B9
:10206200A9000A168A11E9200A168A11831203139B
:102072002508FF3E831603139200831203133708C9
:1020820083160317E500831203133608831603171A
:10209200E40083120313350883160317E300831247
:1020A2000313340883160317E20008000310831693
:1020B2000313440D450DC600460883120313EF00B7
:1020C2006F08031D652866287128003083160313E4
:1020D200C5000030C4000030C3000030C200E82850
:1020E200831603134208C6004308C7004408C80009
:1020F2004508C9001F300310C90CC80CC70CC60C18
:10210200FF3E031D7C284608CA004A0883120313B7
:10211200EE0083160313C417FF30C205FF30C30558
:10212200FF30C4050030C505963083120313EF0259
:10213200EF1F9C289D28BB286F08803A973E031802
:10214200A328A428A52866280130031083160313A8
:10215200C50CC40CC30CC20CFF3E031DA6280130E3
:10216200C600460883120313EF07031DB928BA28D5
:10217200A528D62820306F02031CC028C128D128E8
:102182006628013083160313C6000310C20DC30D67
:10219200C40DC50DC60BC628013083120313EF020E
:1021A2006F08031DD528D628C2286E080319DA281D
:1021B200DB28E82883160313C209C309C409C50929
:1021C200C20A0319C30A0319C40A0319C50A08007B
:1021D20083120313AF01A81FEF28F028FD28A509D9
:1021E200A609A709A809A50A0319A60A0319A70A95
:1021F2000319A80AAF01AF0AAC1F0029012910294F
:10220200A909AA09AB09AC09A90A0319AA0A03195F
:10221200AB0A0319AC0A0130AD002D08AF0600303D
:10222200B3000030B2000030B1000030B000280826
:1022320027042604250403191F2920296D29AE012C
:10224200AE0A30290130AD000310A50DA60DA70D71
:10225200A80DAD0B25290130AD002D08AE07A81F32
:102262003329342923290130AD000310B00DB10DFB
:10227200B20DB30DAD0B362928082C02031D4B29D4
:1022820027082B02031D4B2926082A02031D4B296E
:1022920025082902031C4E294F295E292508A90277
:1022A2002608031C260FAA022708031C270FAB02CD
:1022B2002808031C280FAC02301401300310A80CAC
:1022C200A70CA60CA50CFF3E031D5F290130AE0230
:1022D200031D6C296D2934292F08031971297229CC
:1022E2007D29B009B109B209B309B00A0319B10ACB
:1022F2000319B20A0319B30A3308A8003208A70067
:102302003108A6003008A5000800003072058312CB
:102312000313A00000307305A10080307405A200F1
:102322007F307505A3002308220421042004031D25
:102332009B299C29A4290030F5000030F4000030CC
:10234200F3000030F20000307605A000003077057F
:10235200A10080307805A2007F307905A300230810
:10236200220421042004031DB729B829C029003002
:10237200F9000030F8000030F7000030F600F51FD9
:10238200C329C429E8290030A0000030A100003090
:10239200A2008030A3007208A0027308031C730F0E
:1023A200D329D429A1027408031C740FD929DA296C
:1023B200A2027508031C750FDF29E029A302230876
:1023C200F5002208F4002108F3002008F200F91FAA
:1023D200EB29EC29102A0030A0000030A1000030C7
:1023E200A2008030A3007608A0027708031C770FB2
:1023F200FB29FC29A1027808031C780F012A022A72
:10240200A2027908031C790F072A082AA3022308CB
:10241200F9002208F8002108F7002008F6008030B1
:10242200F5068030F90679087502031D222A78081C
:102432007402031D222A77087302031D222A7608DA
:1024420072020318252A262A282A0310292A03148D
:10245200080083120313C20042080319312A322AE8
:10246200462ABD1F352A362A462A3A09C4003B09A4
:10247200C5003C09C6003D09C700C40A0319C50AC4
:102482000319C60A0319C70A4E2A3D08C7003C08A9
:10249200C6003B08C5003A08C4003D083C043B04A2
:1024A2003A04031D552A562A5F2A0030BD00003027
:1024B200BC000030BB000030BA00E52A9630BE00F6
:1024C2003E08C300712A0130BE003E08C307013036
:1024D2000310C70CC60CC50CC40CFF3E031D692AB1
:1024E200FE304705031D762A772A642A932A013093
:1024F200BE003E08C3070130C40700300318013094
:10250200C507003003180130C60700300318013038
:10251200C70701300310C70CC60CC50CC40CFF3E24
:10252200031D8B2AFF304705031D982A992A782A12
:10253200A52A0130C3020130BE000310C40DC50D2F
:10254200C60DC70DBE0B9E2AC61BA82AA92AAF2AF2
:10255200023043020318AE2AAF2A9A2A4318B22A3B
:10256200B32ABB2AFF30C405FF30C5057F30C6053C
:10257200FF30C7050310C30C4308BE00BF01C001F2
:10258200C10118300310BE0DBF0DC00DC10DFF3EBD
:10259200031DC32A3E08C4043F08C5044008C604FC
:1025A2004108C70442080319D72AD82ADD2ABD1FC9
:1025B200DB2ADC2ADD2AC7174708BD004608BC0013
:1025C2004508BB004408BA000800831603132F080D
:1025D2008039B0003008B9002F08B0003007B100D0
:1025E2003108C000AE1FF62AF72AF82A4014400824
:1025F2000319FC2AFD2A0D2B400A031D012B022B75
:102602000A2B0030AF000030AE000030AD000030C9
:10261200AC00AE17AF01152B0030AF000030AE009A
:102622000030AD000030AC002B088039B00030081B
:10263200B9062B08B0003007B1003108C100AA1F4B
:10264200232B242B252B411441080319292B2A2B38
:102652003A2B410A031D2E2B2F2B372B0030AB00B8
:102662000030AA000030A9000030A800AA17AB0170
:10267200422B0030AB000030AA000030A90000302D
:10268200A8002B082A0429042804031D492B4A2BDD
:10269200632B0030AF000030AE000030AD000030E0
:1026A200AC008030AE047F30AF043908B00030088F
:1026B200AF042F08AB002E08AA002D08A9002C0891
:1026C200A800C22C4008031D672B682B712B003019
:1026D200AB000030AA000030A9000030A800C22CD4
:1026E2004008B000B1013108B30041083002B20025
:1026F200031CB30332087F3EBA0033080318013EBD
:10270200003EBB002F08B8002E08B7002D08B60007
:102712002C08B5000030AF000030AE000030AD0034
:102722000030AC000030BF000030BE000030BD0001
:102732000030BC00C101E72B41080319A12BA22BD9
:10274200C22B0130B0000310B50DB60DB70DB80D98
:10275200B00BA42B0130B0000310AC0DAD0DAE0DCB
:10276200AF0DB00BAD2BBF1FB72BB82BB92B2C1451
:102772000130B0000310BC0DBD0DBE0DBF0DB00B7E
:10278200BB2B2B083802031DD02B2A083702031D4E
:10279200D02B29083602031DD02B28083502031C32
:1027A200D32BD42BE32B3F172808B5022908031C8F
:1027B200290FB6022A08031C2A0FB7022B08031C92
:1027C2002B0FB8020130B0003008C1071A304102A5
:1027D200031CEC2BED2B9D2B3808370436043504F3
:1027E2000319F42BF52B142C3C14142C0130B000DB
:1027F2000310AC0DAD0DAE0DAF0DB00BF92BBF1F1D
:10280200032C042C052C2C140130B0000310BC0D39
:10281200BD0DBE0DBF0DB00B072CFF30BA0703185C
:10282200BB0AFF30BB07AE1F172C182CF72BC101B8
:10283200BF1F1C2C1D2C392CFF303C05B000FF3073
:102842003D05B100FF303E05B2007F303F05B300C9
:1028520033083204310430040319302C312C342C67
:10286200C101C10A392C2C1C372C382C392C312CA3
:10287200410803193D2C3E2C6F2C0130AC0700306F
:1028820003180130AD07003003180130AE070030E5
:1028920003180130AF072F1C4F2C502C6F2C2C0823
:1028A200B0002D08B1002E08B2002F08B30001308D
:1028B200B400330DB30CB20CB10CB00CB40B5A2CE7
:1028C2003308AF003208AE003108AD003008AC006A
:1028D2000130BA070318BB0A0030BB073B08803A35
:1028E200FF0080307F02031D782CFF303A02031C68
:1028F2007B2C7C2C8A2CFF3083160313BA00003009
:10290200BB000030AF000030AE000030AD00003040
:10291200AC00831603133B08803AFF0080307F022D
:10292200031D952C01303A020318982C992CA62CE1
:1029320083160313BA01BB010030AF000030AE00B2
:102942000030AD000030AC00B901831603133A0821
:10295200B0003008C000401CAF2CB02CB22CAE1717
:10296200B62C7F30B0003008AE054008B00003102E
:10297200300CB1003108AF003908B0003008AF04A4
:102982005A2B080083160313880187010130860041
:10299200FF308500831603178801890100308312F6
:1029A2000313B7000030B6000430B500E230B400C3
:1029B2000A168A1106200A168A118B170B178B1614
:1029C2000B1106308312031381008B178316031336
:1029D2008112011281110114811001118B10011752
:1029E2000B160A128A1516200A168A11FA01FB0121
:1029F200013083160313D8000030D900003083164B
:102A02000317D7000030D6000030D5000030D400C4
:102A12000030D3000030D2000030D1000030D000AE
:102A22000030CF000030CE000030CD000030CC00AE
:102A32000030C3000030C2000030C1000030C000CE
:102A42000030BF000030BE000030BD000030BC00CE
:102A52000030BB000030BA000030B9000030B800CE
:102A62000030A3000030A2000030A1000030A0001E
:102A720000309F0000309E0000309D0000309C001E
:102A820000309B0000309A0000309900003098001E
:102A92003D3083160313DD00CC30DC00CC30DB008C
:102AA200CD30DA00403083160317AB00C030AA00E5
:102AB2000030A9000030A8003D30E100CC30E00039
:102AC200CC30DF00CD30DE004030A7002030A60041
:102AD2000030A5000030A4000030970000309600BE
:102AE20000309500003094000A128A1127200A163D
:102AF2008A117A037B04031D7F2D802DBA2D831644
:102B0200031358035904031D872D882DA12D0A167E
:102B12008A1101200A168A11831203138710831661
:102B220003135508CC005408CB000A128A157720EB
:102B32000A168A110A168A1570230A168A11CA2DD4
:102B42000A168A156B230A168A11831203130711B8
:102B5200831603135508CC005408CB000A128A11BD
:102B620036270A168A110A168A157B230A168A1133
:102B7200CA2D0A168A156B230A168A1183120313A9
:102B820007110A168A1101200A168A1183120313E9
:102B9200871083160317971BDF2D1708031DE02DDF
:102BA2001608031DE02D09301502031DDC2DC5306A
:102BB2001402031DDC2D031CDF2DE02D8E2F0030AF
:102BC20083160317970000309600003095000030FE
:102BD2009400F501F50A01300A168A1550250A16E5
:102BE2008A1110300A168A15A8230A168A11003093
:102BF20083120313B7000030B6000030B5000A306C
:102C0200B4000030A8000030A7000030A6006430F5
:102C1200A500831603174F0883120313AC00831613
:102C220003174E0883120313AB00831603174D08D4
:102C320083120313AA00831603174C08831203138B
:102C4200A9000A168A11E9200A168A1183120313AF
:102C52002808BB002708BA002608B9002508B800D2
:102C62000A168A1579270A168A1183120313340861
:102C7200303E0A168A15F6230A168A11003083128C
:102C82000313B7000030B6000030B5000A30B400BC
:102C92000030A8000030A7000030A6000A30A500CE
:102CA200831603174F0883120313AC00831603170E
:102CB2004E0883120313AB00831603174D088312C9
:102CC2000313AA00831603174C0883120313A900E7
:102CD2000A168A11E9200A168A1183120313280898
:102CE200BB002708BA002608B9002508B8000A1652
:102CF2008A1579270A168A11831203133408303E83
:102D02000A168A15F6230A168A1100308312031353
:102D1200B7000030B6000030B5000A30B4008316A8
:102D220003174F0883120313BB00831603174E08C1
:102D320083120313BA00831603174D088312031379
:102D4200B900831603174C0883120313B8000A163E
:102D52008A1579270A168A11831203133408303E22
:102D62000A168A15F6230A168A1109300A168A15D6
:102D7200A8230A168A11F501F50A02300A168A15E5
:102D820050250A168A1115300A168A15A8230A1622
:102D92008A11003083120313B7000030B6000030EE
:102DA200B5000A30B4000030A8000030A70000309F
:102DB200A6006430A500831603171B0883120313B1
:102DC200AC00831603171A0883120313AB00831691
:102DD2000317190883120313AA008316031718088E
:102DE20083120313A9000A168A11E9200A168A110E
:102DF200831203132808BB002708BA002608B9006B
:102E02002508B8000A168A1579270A168A1183122C
:102E120003133408303E0A168A15F6230A168A115D
:102E2200003083120313B7000030B6000030B50043
:102E32000A30B4000030A8000030A7000030A6001D
:102E42000A30A500831603171B0883120313AC0074
:102E5200831603171A0883120313AB008316031792
:102E6200190883120313AA00831603171808831282
:102E72000313A9000A168A11E9200A168A1183127D
:102E820003132808BB002708BA002608B900250842
:102E9200B8000A168A1579270A168A1183120313B3
:102EA2003408303E0A168A15F6230A168A110030B3
:102EB20083120313B7000030B6000030B5000A30A9
:102EC200B400831603171B0883120313BB00831677
:102ED20003171A0883120313BA008316031719087B
:102EE20083120313B90083160317180883120313FE
:102EF200B8000A168A1579270A168A118312031353
:102F02003408303E0A168A15F6230A168A11013051
:102F12000A168A15A8230A168A117A037B04031D4E
:102F2200932F942FA72F0E3083160313D300530829
:102F3200F50001300A168A1550250A168A111A3030
:102F42000A168A15A8230A168A11B92F0E3083167B
:102F52000313D3005308F50001300A168A155025D1
:102F62000A168A111E300A168A15A8230A168A1111
:102F72008316031358035904031DC02FC12FD22FE8
:102F82000F30D3005308F50002300A168A15502577
:102F92000A168A1122300A168A15A8230A168A11DD
:102FA200E22F0F30D3005308F50002300A168A15BB
:102FB20050250A168A111B300A168A15A8230A16EA
:102FC2008A110A168A15F7260A168A117A037B04D1
:102FD200031DEC2FED2F752D0A168A1506260A16EB
:102FE2008A110A168A15A8250A168A110A168A153E
:102FF200B4240A168A11752D0A128A110C28183067
:103002008A000408840A82070034283476342F3474
:1030120070342934203420340034283476342F3468
:1030220070342934203400345434443420343A3453
:1030320000344434413454343A3400344F344E343E
:10304200203400344F34463446340034543420346F
:02305200003448
:1036D600831203139711171108008312031397150A
:1036E60017151214921412158316031307110800E6
:1036F600831203139D151D151214921412158316A9
:10370600031387100800F200721C8A2B8B2B8F2B59
:10371600831203138817922B831203138813F21C48
:10372600952B962B982B0817992B0813721D9C2BFB
:103736009D2B9F2B8816A02B8812F21DA32BA42B42
:10374600A62B0816A72B08120800F900F701F801A6
:10375600BF2B7708790784000A168A1500200A16F7
:103766008A150A168A15F6230A168A150130F707EE
:103776000318F80A0030F8077708790784000A1654
:103786008A1500200A168A15003A031DCB2BCC2B6E
:10379600AC2B080083120313A400A001A101720838
:1037A600F400F5017408A2007508A300241CDC2BA4
:1037B600DD2BE32B2208A0070318A10A2308A10783
:1037C60001300310A20DA30DFF3E031DE42B0310D1
:1037D600A40C2408031DF02BF12BD92B2108F30090
:1037E6002008F2000800F60076080F39F300730887
:1037F600F4007608F039F3007308F500831203131A
:1038060006167508F30004300310F30CFF3E031D83
:10381600072C73080A168A1586230A168A15831238
:10382600031306154230F300F30B172C0000831226
:103836000313061174080A168A1586230A168A15B2
:103846008312031306154230F300F30B282C0000F5
:1038560083120313061108008316031762088312E6
:103866000313B60083160317630883120313B70006
:1038760083160317640883120313B800831603170D
:10388600650883120313B90004300310B60DB70D93
:10389600B80DB90DFF3E031D482C3908A80038089D
:1038A600A7003708A6003608A5000130AC00313065
:1038B600AB002D30AA000030A9000A168A11E920B3
:1038C6000A168A15831203132608B5002508B400C4
:1038D6000800003083120313A4000030A300003058
:1038E600A2000030A100721C792C7A2C912C76084B
:1038F600A107770803110318013E0319832CA207B9
:10390600780803110318013E03198A2CA3077908C6
:1039160003110318013E0319912CA4070130A000DE
:103926000310F60DF70DF80DF90DA00B932C0130D1
:103936000310F50CF40CF30CF20CFF3E031D9B2C4C
:103946007508740473047204031DAA2CAB2C762C20
:103956002408F5002308F4002208F3002108F200E9
:103966000800831203138519B92CBA2CFF2C823058
:10397600F300DD30F200F20BBE2CF30BBE2CC32C91
:10398600831203138519C82CC92CFF2CF630F200BC
:10399600FF30F300FF30F400FF30F5008316031705
:1039A6001808F20719080318190FDA2CDB2CF3078D
:1039B6001A0803181A0FE02CE12CF4071B08031849
:1039C6001B0AF50775089B0074089A00730899008E
:1039D600720898009B1FF02CF12CF92C00309B00EC
:1039E60000309A00003099000030980083120313CB
:1039F600851DFE2CFF2CF92C08008030831603133E
:103A0600AB062F0883120313E500831603132E0853
:103A160083120313E400831603132D088312031382
:103A2600E300831603132C0883120313E2008316A4
:103A360003132B0883120313E900831603132A08C2
:103A460083120313E8008316031329088312031352
:103A5600E70083160313280883120313E6000A12ED
:103A66008A159A240A168A15831203136508831683
:103A76000313AB0083120313640883160313AA000F
:103A860083120313630883160313A9008312031317
:103A9600620883160313A800080083120313A0000C
:103AA6002003031D572D582D7D2D75087F3EF600EA
:103AB6007608A3002308F60004300310F60CFF3E38
:103AC600031D602D7608F7007708A10023080F393B
:103AD600F6007608A20021080A128A1500200A16A6
:103AE6008A158312031322080A128A1500200A1661
:103AF6008A15A72D02302006031D822D832DA72DA2
:103B06007508BF3EF6007608A3002308F6000430C9
:103B16000310F60CFF3E031D8B2D7608F700770881
:103B2600A10023080F39F6007608A20021080A1220
:103B36008A1500200A168A158312031322080A1210
:103B46008A1500200A168A15080083120313051920
:103B5600AD2DAE2D052E8230F300DD30F200F20BD6
:103B6600B22DF30BB22DB72D831203130519BC2DFD
:103B7600BD2D052E0A30F2000030F3000030F400AF
:103B86000030F500831603171808F2071908031802
:103B9600190FCE2DCF2DF3071A0803181A0FD42D9F
:103BA600D52DF4071B0803181B0AF50775089B009B
:103BB60074089A0073089900720898009B1BF42DEC
:103BC6001B08031DF52D1A08031DF52D01301902DA
:103BD600031DF12D19301802031DF12D031CF42DC0
:103BE600F52DFF2D0030831603179B0000309A0039
:103BF600013099001830980083120313051D042E16
:103C0600052EFF2D08008312031385180B2E0C2E8C
:103C16007D2E823083160313D000DD30CF00CF0B0C
:103C2600122ED00B122E8312031385181B2E1C2E58
:103C36007D2E013083160313D8070318D90A0030E6
:103C4600D9075908803AFF0080307F02031D2D2EC8
:103C560002305802031C302E312E352E83160313E4
:103C6600D801D9018316031358035904031D3C2EAA
:103C76003D2E562E0A168A1101200A168A1583121F
:103C860003138710831603135508CC005408CB0082
:103C96000A128A1577200A168A150A168A157023BB
:103CA6000A168A15772E5508CC005408CB000A123E
:103CB6008A1136270A168A150A168A156B230A16DA
:103CC6008A15831203130711831603135508CC00B4
:103CD6005408CB000A128A1136270A168A150A16C4
:103CE6008A157B230A168A1583120313851C7C2EDC
:103CF6007D2E772E08000B1D812E822EDB2E0B11BA
:103D06000630831203138100013083160317C80798
:103D1600003003180130C907003003180130CA0704
:103D2600003003180130CB07013094070030031828
:103D3600013095070030031801309607003003184C
:103D460001309707CB1BB82E4B08031DB92E4A0826
:103D5600031DB92E01304902031DB52EF530480268
:103D6600031DB52E031CB82EB92EDB2E003083168C
:103D76000317CB000030CA000030C9000030C8006D
:103D86000B128B125708D3005608D2005508D100E3
:103D96005408D0000030D7000030D6000030D500DF
:103DA6000030D4000B168B160130DC000030DD002D
:103DB6008B1CDE2EDF2EF02E013083160317D40760
:103DC600003003180130D507003003180130D6073C
:103DD600003003180130D7078B1071088A00700E67
:103DE6008300FE0E7E0E0900831203130518FC2EB7
:103DF600FD2E782F823083160313D000DD30CF00DE
:103E0600CF0B032FD00B032F8312031305180C2F90
:103E16000D2F782F0130FA070318FB0A0030FB0735
:103E26007B08803AFF0080307F02031D1C2F023082
:103E36007A02031C1F2F202F222FFA01FB017A037F
:103E46007B04031D272F282F622F83160313580385
:103E56005904031D2F2F302F492F0A168A110120CE
:103E66000A168A158312031387108316031355083F
:103E7600CC005408CB000A128A1577200A168A1538
:103E86000A168A1570230A168A15722F0A168A15BB
:103E96006B230A168A15831203130711831603135D
:103EA6005508CC005408CB000A128A1136270A1688
:103EB6008A150A168A157B230A168A15722F0A1680
:103EC6008A156B230A168A158312031307110A161D
:103ED6008A1101200A168A1583120313871083128A
:103EE6000313051C772F782F722F080083120313F4
:103EF600BE01BB1F7F2F802F8D2FB809B909BA09C4
:103F0600BB09B80A0319B90A0319BA0A0319BB0A85
:103F1600BE01BE0AB71F902F912F9C2FB409B50979
:103F2600B609B709B40A0319B50A0319B60A03197B
:103F3600B70A37083604350434040319A32FA42F0F
:103F4600E72FBD01BD0AB42F0130BC000310B40D2C
:103F5600B50DB60DB70DBC0BA92F0130BC003C0842
:103F6600BD07B71FB72FB82FA72F37083B02031D72
:103F7600C62F36083A02031DC62F35083902031D1F
:103F8600C62F34083802031CC92FCA2FD82F34086D
:103F9600B8023508031C350FB9023608031C360F64
:103FA600BA023708031C370FBB0201300310B70CE7
:103FB600B60CB50CB40CFF3E031DD92F0130BD0263
:103FC600031DE62FE72FB82F3E080319EB2FEC2F22
:103FD600F72FB809B909BA09BB09B80A0319B90A0A
:103FE6000319BA0A0319BB0A3B08B7003A08B60018
:0A3FF6003908B5003808B4000800CF
:04400E00F22FFF3F4F
:00000001FF
